:020000040800F2
:10000000204E0020A1010008BD590008B347000898
:1000100035590008D11E0008516200080000000098
:1000200000000000000000000000000005010008C2
:10003000E92700080000000049010008495D0008A8
:10004000BB010008BB010008BB010008BB010008A0
:10005000BB010008BB010008BB010008BB01000890
:10006000BB010008BB010008BB010008BB01000880
:10007000BB010008BB010008BB010008BB01000870
:10008000BB010008BB010008BB010008BB01000860
:10009000BB010008BB010008BB010008BB01000850
:1000A000BB010008BB010008BB010008BB01000840
:1000B000BB010008BB010008BB010008BB01000830
:1000C000BB010008BB010008BB010008BB01000820
:1000D000BB010008BB010008BB010008BB01000810
:1000E000BB010008BB010008BB010008DFF810D00D
:1000F00000F0C4FC0048004711720008AFF3008014
:10010000204E0020224B19680868B0E8F00F80F3F9
:100110000988BFF36F8F4FF0000080F311884EF015
:100120000D0E70470000000006480068006880F36C
:10013000088862B661B6BFF34F8FBFF36F8F00DFE1
:1001400000BF00BF08ED00E0EFF30980BFF36F8F41
:100150000F4B1A6820E9F00F106008B54FF0BF0090
:1001600080F31188BFF34F8FBFF36F8F07F064FCEC
:100170004FF0000080F31188BDE808401968086856
:10018000B0E8F00F80F30988BFF36F8F704700BFAE
:1001900010000020EFF305807047000040BA704760
:1001A0000648804706480047FEE7FEE7FEE7FEE711
:1001B000FEE7FEE7FEE7FEE7FEE7FEE7C35D0008B9
:1001C000ED000008202A04DB203A21FA02F0002189
:1001D000704721FA02F3D040C2F120029140084357
:1001E00019467047D2B201E000F8012B491EFBD23C
:1001F00070470022F6E710B513460A460446194632
:10020000FFF7F0FF204610BDF0B480EA0102D40FE2
:100210004200B2EB410F02D20246084611464A00A4
:1002200042D0C30DDDB2C1F3C752AD1A202D35DA6D
:10023000C1F3160141F4000204B15242C5F1200697
:1002400002FA06F12A411044B3EBD05F23D0C4B1C7
:10025000012DA0EBC35009DCF0BC4FF0004202EAD4
:10026000C352DBB200F5000000F065BB400000F1B6
:10027000807000EBC350A0F1807040EAD17049005B
:1002800009E0490841EAC071A0EBC35000F5000045
:10029000400800EBC350F0BC00F044BB61420122B7
:1002A00002EB4101001BF6E7F0BC704781F0004112
:1002B000AAE780F00040A7E780EA010210B502F04B
:1002C0000043400022D04A001FD0010E01EB126112
:1002D000C0F35600C2F3560240F4000042F400029C
:1002E000A0FB022000047F39140400D0401C50EA17
:1002F000124001D44000491EC2B20C0604EBD010DB
:10030000401C4008802A02D003E0002010BD20F0ED
:100310000100002900DA0020184310BD30B480EA43
:10032000010202F0004530F0004221F0004013D0FD
:1003300090B1C30DD40DC2F31601C0F31600E41A38
:1003400041F4000140F400027D34914201D3641C69
:1003500000E04900002C02DA30BC002070474FF466
:1003600000000023914201D3891A034340084FEA59
:100370004101F7D151B1914202D14FF0004105E066
:1003800002D24FF0010101E06FF0010103EBC45014
:10039000284430BC00F0C6BA2DE9FE4F804681EA01
:1003A0000300C00F0C46009021F0004123F00045EF
:1003B000B8EB0200A94105D24046214690461C46B2
:1003C0000B46024623F00040104347D0270DC7F3E9
:1003D0000A00C3F30A510290401A019040286BDAD8
:1003E000C3F3130040F4801B0098924620B1002311
:1003F000D2EB030A63EB0B0B01985946C0F14002A4
:10040000504600F06EFA06460D4650465946019A8F
:1004100000F076FA10EB08006141002487EA1152DF
:1004200084EAE7731A4340D0009A62B3019A012A22
:100430004FEA075215DC001B61EB02014FF000424E
:1004400002EA0752CDE90042001C41F58011324614
:100450002B4600F0ADFA03B0BDE8F08F40462146D0
:10046000F9E7001B61EB0201001C41F58013001845
:100470005B412018A2F5001747EB030140EAD57055
:10048000B6196D4111E06D084FEA360645EAC075B0
:100490004FEA0752001B61EB0201001C41F580117D
:1004A00049084FEA30000019514132462B4603B04B
:1004B000BDE8F04F00F06DBA009801224000002323
:1004C000D0EB020263EBE073009821464FEAE07440
:1004D000B8EB000061EB0401E9E783F000435BE760
:1004E00081F0004158E72DE9FE4F81EA030404F052
:1004F000004421F0004100944FF0000B23F0004332
:1005000050EA01045ED052EA03045BD0C3F30A54FC
:10051000C1F30A552C44A4F2F3340194A0FB025415
:10052000C1F3130141F48011C3F3130343F48013A7
:1005300001FB024400FB034E840A970A44EA8154FB
:1005400047EA8357A4FB076802958D0A05FB0785D8
:100550004FEA932C04FB0C542705029D4FEA0658E2
:1005600047EA1637B5EB08056EEB070C870E920EBF
:1005700047EA811742EA8312A7FB0201B6EB0B019F
:1005800064EB00042B0D43EA0C335E1844EB1C5063
:10059000DA465146E7FB0201C5F313044FEA0B3379
:1005A00043EA14534FEA0432019C43EA0603A4F1E0
:1005B0000C040294009CCDE900B400F0F9F903B0FA
:1005C000BDE8F08F00200146F9E72DE9F04D81EA02
:1005D000030404F0004B21F0004514464FF0000ADC
:1005E00023F0004150EA050220D054EA01021DD058
:1005F000C5F30A570246C5F31303C1F31300C1F351
:100600000A5640F4801543F48013A7EB0608101B2C
:10061000D64608F2FD3873EB050002D308F1010855
:1006200001E092185B41B8F1000F03DA00200146A7
:10063000BDE8F08D00204FF48011064684460EE0A0
:10064000171B73EB050705D3121B63EB050306436A
:100650004CEA010C49084FEA300092185B4150EA1D
:100660000107EDD152EA030012D082EA040083EAC6
:100670000501084305D0101BAB4106D2012200231F
:1006800006E000224FF0004302E06FF00102531039
:100690001AEB06004CEB085110EB0A0041EB0B0182
:1006A000BDE8F04D00F075B9C10F80EAE070084474
:1006B000CA079623002100F03EB996230022114676
:1006C00000F039B90EB5C10F80EAE0700844CA07DE
:1006D000002140F233438DE80E000A460B4600F03D
:1006E00067F903B000BD0EB540F23341029100211D
:1006F000CDE900110A460B4600F05AF903B000BDDF
:1007000000F0004220F00040C10DC0F3160040F49C
:1007100000007F2901DA00207047962903DCC1F12F
:100720009601C84001E096398840002AF4D0404242
:10073000704720F00040C10DC0F3160040F40000E7
:100740007F2901DA00207047962903DCC1F1960168
:10075000C840704796398840704770B5C1F30A5257
:1007600001F000450024C1F3130140F2FF3341F4CE
:1007700080119A4201DA002070BD40F233439A4260
:10078000A2F2334203DC5242FFF71CFD00E090402E
:100790002C43F1D0404270BDC1F30A5210B5C1F3F1
:1007A000130140F2FF3341F480119A4201DA002034
:1007B00010BD40F233439A42A2F2334203DC52426C
:1007C000FFF700FD10BD904010BD00F0004230F07A
:1007D00000400AD0C10D01F56071C0F3160042EA75
:1007E0000151C2084007114370470020014670477D
:1007F00030B5041E71F1000404DB4FF000444042A8
:1008000064EB0101141E73F1000405DB1C464FF07C
:100810000043524263EB04038B4208BF824230BD67
:1008200001F0004330B421F0004150EA010206D04B
:100830000A0DA2F56072C1F31301002A02DC30BC7C
:1008400000207047440F44EAC104C100E01830BCE6
:1008500000EBC25000F066B8002801DBC0F1004098
:10086000002901DBC1F1004181427047002801DB12
:10087000C0F10040002901DBC1F10041884270470E
:100880002DE9F05F0546002092469B4688460646C5
:10089000814640241BE02846414647462246FFF752
:1008A00091FC53465A46C01A914110D3114618463E
:1008B000224600F016F82D1A67EB01084F46224633
:1008C0000120002100F00DF817EB00094E41201E19
:1008D000A4F10104DFDC484631462A464346BDE820
:1008E000F09F202A04DB203A00FA02F10020704732
:1008F0009140C2F1200320FA03F31943904070475E
:10090000202A06DBCB17203A41FA02F043EAE073D3
:1009100006E041FA02F3D040C2F1200291400843C0
:10092000194670470029A8BF7047401C490008BFFE
:1009300020F00100704710B4B0FA80FC00FA0CF00F
:1009400050EA010404BF10BC704749B1CCF1200447
:1009500021FA04F411FA0CF118BF012121430843D4
:10096000A3EB0C01CB1D4FEA00614FEA102042BF00
:10097000002010BC704700EBC35010440029A4BFF6
:1009800010BC7047401C490008BF20F0010010BC9B
:10099000704710B5141E73F1000408DA401C41F1D1
:1009A000000192185B411A4301D120F0010010BDF3
:1009B0002DE9F04D92469B4611B1B1FA81F202E069
:1009C000B0FA80F220329046FFF78BFF04460F46C4
:1009D00040EA0A0041EA0B0153465A46084313D045
:1009E000114653EA010019D0C8F140025046FFF702
:1009F000E9FB05460E46504659464246FFF771FF51
:100A0000084305D0012004E020463946BDE8F08DBA
:100A10000020054346EAE0762C4337430A986305F5
:100A2000E40AA0EB08000022FD0A44EA47540A3019
:100A300002D500200146E9E7010510196941DDE909
:100A4000084500196941BDE8F04DA2E770B521F0F5
:100A5000004303430CD0C1F30A550024D5EB040531
:100A600064EB0403D617AD1AB34102DB0020014644
:100A700070BD201841EB025170BD0000064C074DBF
:100A800006E0E06840F0010394E80700984710345E
:100A9000AC42F6D3FFF72EFB3081000850810008EE
:100AA000420005D0C0F3C7525242914201DC0020FF
:100AB000704700EBC15070472DE9F04D00231A46F6
:100AC0001B1A8A4103DB00200146BDE8F08DC1F30B
:100AD0000A52C1F3130141F480154FF0000BD10706
:100AE00002D100186D41521E0027044640F2FF114A
:100AF000384601EB620A3E468046024600204FF42B
:100B00008011FFF75FFBC2197141BB1846EB010072
:100B1000B4EB030C75EB000C04D3E41A65EB000591
:100B200017460E46241908F101006D41804634280D
:100B3000E3DDF91946EB0600091BA84103D24FF08B
:100B4000FF32134601E0002213461BEB070046EB81
:100B50000A51BDE8F04DFFF71CBF70B58C1810F8B6
:100B6000015B15F0070301D110F8013B2A1106D1F2
:100B700010F8012B03E010F8016B01F8016B5B1E0C
:100B8000F9D12B0705D40023521E0DD401F8013BE7
:100B9000FAE710F8013BCB1A921C03E013F8015B53
:100BA00001F8015B521EF9D5A142D8D3002070BDD7
:100BB00070B504460D46164632462946204601F0D9
:100BC00053FA70BD38B504460D46607A012807D146
:100BD00000200090022300221146286806F0FEFF44
:100BE00038BD00002DE9F04F85B083460C4616460F
:100BF0001D465846FFF761FD344908612046FFF75E
:100C00005CFD3249486132490988601AFFF74CFDA2
:100C100007462946FFF782FB04902D48048001F027
:100C2000DDFD81463146FFF741FB80462946FFF74F
:100C300043FB0746274801683846FFF7E5FA254990
:100C400008600498FFF7C1FD0746234A234BFFF7CE
:100C50004AFCCDE900011F480068FFF7B6FD0746D2
:100C60001F4A204BFFF73FFC8146DDE90023FFF7D9
:100C700093FBCDE90201FFF7D3FD1B4948610498BE
:100C8000FFF7A3FD0746144A144BFFF72CFCCDE9F0
:100C9000020110480068FFF798FD0746104A114B03
:100CA000FFF721FCCDE90001DDE90223FFF774FB2A
:100CB0008146FFF7B5FD074908602A460A490348FF
:100CC00001F008F905B0BDE8F08F00003C020020FB
:100CD00082020020840200207B14AE47E17A943F18
:100CE0005C8FC2F5285CEF3F5C02002070B50446C3
:100CF000204604F05BF9274AB2F90010B4F9060067
:100D000001F08AF9E080E088224908800A46B2F9B9
:100D10000210B4F9080001F07FF9208120891D49F3
:100D200048800A46B2F90410B4F90A0001F074F9D7
:100D30006081608917498880B4F90000FFF7B4FC2E
:100D400006463146144801F039F90546FFF7D8FC4C
:100D500000B22080B4F90200FFF7A6FC0646314637
:100D60000D48183001F02AF90546FFF7C9FC00B21A
:100D70006080B4F90400FFF797FC06463146064848
:100D8000303001F01BF90546FFF7BAFC00B2A08035
:100D900070BD00007C020020FC0000202DE9FF4710
:100DA000044689469246DDE90C56B4F90210A1F5D5
:100DB000FA70FFF787FC4A4A4A4BCDE90201FFF778
:100DC00092FB0746FFF72CFD47490861DAF804005B
:100DD0004861B9F90800FFF775FC07460022434B4C
:100DE000FFF781FB0022424BCDE90001FFF7EDFB4D
:100DF000CDE90201FFF714FD3E494861284631461E
:100E0000FFF70EFD07463A463A49374801F062F8C7
:100E1000B4F90410A1F5FA70FFF754FC0746304A04
:100E2000304BFFF760FBCDE90201FFF7F9FC3249D7
:100E30000861DAF808004861B9F90600FFF742FCDA
:100E400007460022294BFFF74EFB0022284BCDE935
:100E50000001FFF7BAFBCDE90201FFF7E1FC2749EA
:100E6000486128463146FFF7DBFC07463A462349EE
:100E7000214801F02FF8B4F90610A1F5FA70FFF738
:100E800021FC0746164A174BFFF72DFBCDE902015F
:100E9000FFF7C6FC1A490861DAF800004861B9F9A1
:100EA0000A00FFF70FFC07460022104BFFF71BFB61
:100EB00000220F4BCDE90001FFF787FBCDE90201CE
:100EC000FFF7AEFC0F49486128463146FFF7A8FC02
:100ED00007463A460B490A4800F0FCFFBDE8FF8789
:100EE0007B14AE47E17A943F7C0100200040AF4084
:100EF000E0FFEF409C010020BC010020DC0100204D
:100F0000FC0100201C02002003B589B0099848B9F3
:100F10000020FA490881FA490881FA490881FA490A
:100F2000088188E20998012872D10A98B0F9000076
:100F3000B0F5487F02DD4FF4487009E00A98B0F937
:100F40000000002801DA002002E00A98B0F9000051
:100F50000390FFF7A9FB0490EC48C068014603909A
:100F60000498FFF751F90590E948C06801460490DC
:100F70000598FFF749F90690E648C06801460590D4
:100F80000698FFF741F9E4490790FFF76FFC01D29B
:100F9000E14863E00A98B0F90000B0F5487F02DD4F
:100FA0004FF4487009E00A98B0F90000002801DA0F
:100FB000002002E00A98B0F900000390FFF774FBEC
:100FC0000490D248C068014603900498FFF71CF9CA
:100FD0000590CF48C068014604900598FFF714F9C2
:100FE0000690CC48C068014605900698FFF70CF9BA
:100FF00000210790FFF730FC01D200202EE00A9874
:10100000B0F90000B0F5487F03DD4FF448700AE006
:1010100012E20A98B0F90000002801DA002002E08C
:101020000A98B0F900000490FFF73EFB0590B7481E
:10103000C068014604900598FFF7E6F80690B448AA
:10104000C068014605900698FFF7DEF80790B148A2
:10105000C068014606900798FFF7D6F80890FFF79A
:1010600068FBA64908810A98B0F90000B0F5487FEE
:1010700002DD4FF4487009E00A98B0F9000000283A
:1010800001DA002002E00A98B0F900000390FFF7AF
:101090000BFB04909D48C068014603900498FFF73D
:1010A00005F905909A48C068014604900598FFF735
:1010B000ABF806909748C068014605900698FFF780
:1010C000F5F895490790FFF7D1FB01D2924862E00D
:1010D0000A98B0F90000B0F5487F02DD4FF448707F
:1010E00009E00A98B0F90000002801DA002002E0C7
:1010F0000A98B0F900000390FFF7D6FA04908348ED
:10110000C068014603900498FFF7D0F80590804826
:10111000C068014604900598FFF776F806907D4870
:10112000C068014605900698FFF7C0F800210790B7
:10113000FFF792FB01D200202DE00A98B0F90000E1
:10114000B0F5487F02DD4FF4487009E00A98B0F925
:101150000000002801DA002002E00A98B0F900003F
:101160000490FFF7A1FA05906848C0680146049012
:101170000598FFF79BF806906548C0680146059002
:101180000698FFF741F807906248C068014606904C
:101190000798FFF78BF80890FFF7CBFA58490881BA
:1011A0000A98B0F90000B0F5487F02DD4FF44870AE
:1011B00009E00A98B0F90000002801DA002002E0F6
:1011C0000A98B0F900000390FFF76EFA04904F48B8
:1011D000C068014603900498FFF716F805904C4844
:1011E000C068014604900598FFF760F806904948EA
:1011F000C068014605900698FFF758F846490790E1
:10120000FFF734FB01D2444862E00A98B0F90000CD
:10121000B0F5487F02DD4FF4487009E00A98B0F954
:101220000000002801DA002002E00A98B0F900006E
:101230000390FFF739FA04903448C06801460390E0
:101240000498FEF7E1FF05903148C068014604901C
:101250000598FFF72BF806902E48C06801460590C8
:101260000698FFF723F800210790FFF7F5FA01D25F
:1012700000202DE00A98B0F90000B0F5487F02DDAB
:101280004FF4487009E00A98B0F90000002801DA2C
:10129000002002E00A98B0F900000490FFF704FA79
:1012A00005901A48C068014604900598FEF7ACFF07
:1012B00006901748C068014605900698FEF7F6FFAD
:1012C00007901448C068014606900798FEF7EEFFA5
:1012D0000890FFF72EFA0B4908810A98B0F9000030
:1012E000B0F5487F02DD4FF448701AE00A98B0F973
:1012F0000000002812DA002013E00000C8000020DF
:10130000BC000020E0000020D40000209C01002050
:10131000DC0100201C02002000007A440A98B0F989
:1013200000000390FFF7C0F90490FE48C068014632
:1013300003900498FEF7BAFF0590FB48C068014689
:1013400004900598FEF7B2FF0690F848C068014681
:1013500005900698FEF758FFF5490790FFF786FAC3
:1013600001D2F34862E00A98B0F90000B0F5487F76
:1013700002DD4FF4487009E00A98B0F90000002837
:1013800001DA002002E00A98B0F900000390FFF7AC
:101390008BF90490E348C068014603900498FEF777
:1013A00085FF0590E048C068014604900598FEF767
:1013B0007DFF0690DD48C068014605900698FEF75F
:1013C00023FF00210790FFF747FA01D200202DE00C
:1013D0000A98B0F90000B0F5487F02DD4FF448707C
:1013E00009E00A98B0F90000002801DA002002E0C4
:1013F0000A98B0F900000490FFF756F90590C94823
:10140000C068014604900598FEF750FF0690C64854
:10141000C068014605900698FEF748FF0790C3484C
:10142000C068014606900798FEF7EEFE0890FFF7A9
:1014300080F9C0490881D6E30998022872D1BE48D4
:10144000C068BE490490FFF711FA01D2BB480AE018
:10145000B948C068BA490490FFF7FEF901D2B8480C
:1014600001E0B548C06806900A98B0F90000B0F5F0
:10147000487F02DD4FF4487009E00A98B0F9000097
:10148000002801DA002002E00A98B0F9000001907B
:10149000FFF70AF90290A348C0680146019002983C
:1014A000FEF7B2FE0390A048C06801460290039880
:1014B000FEF7AAFE04909D48C06801460390049878
:1014C000FEF7A2FE05900699FEF79EFE984907904A
:1014D000FFF7CCF901D2964895E09748C068974944
:1014E0000490FFF7C3F901D294480AE09248C0681B
:1014F00093490490FFF7B0F901D2914801E08E487A
:10150000C06806900A98B0F90000B0F5487F02DD87
:101510004FF448700AE00A98B0F90000002802DA97
:10152000002003E053E30A98B0F900000190FFF7B0
:10153000BBF802907B48C068014601900298FEF714
:1015400063FE03907848C068014602900398FEF756
:101550005BFE04907548C068014603900498FEF74E
:1015600053FE05900699FEF74FFE00210790FFF706
:1015700073F901D2002046E06F48C0686F490590BA
:10158000FFF774F901D26D480AE06B48C0686C49F6
:101590000590FFF761F901D2694801E06648C0682B
:1015A00007900A98B0F90000B0F5487F02DD4FF4CB
:1015B000487009E00A98B0F90000002801DA00201C
:1015C00002E00A98B0F900000290FFF76DF803906E
:1015D0005448C068014602900398FEF715FE049037
:1015E0005148C068014603900498FEF70DFE05902F
:1015F0004E48C068014604900598FEF705FE069027
:101600000799FEF701FE0890FFF793F84D4908810E
:101610004948C06849490490FFF728F901D2474872
:101620000AE04548C06846490490FFF715F901D221
:10163000434801E04048C06806900A98B0F90000AD
:10164000B0F5487F02DD4FF4487009E00A98B0F920
:101650000000002801DA002002E00A98B0F900003A
:101660000190FFF721F802902E48C06801460190D2
:101670000298FEF71BFE03902B48C06801460290BB
:101680000398FEF7C1FD04902848C0680146039006
:101690000498FEF70BFE05900699FEF7B5FD244968
:1016A0000790FFF7E3F801D22148A7E02248C0687D
:1016B00022490490FFF7DAF801D220480AE01E48D8
:1016C000C0681F490490FFF7C7F801D21C4801E029
:1016D0001948C06806900A98B0F90000B0F5487F34
:1016E00002DD4FF4487009E00A98B0F900000028C4
:1016F00001DA002002E00A98B0F900000190FEF73C
:10170000D3FF02900748C068014601900298FEF797
:10171000CDFD03900448C068014602900398FEF78F
:1017200073FD11E09C010020DC0100201C02002060
:1017300000007A44D40000205C0200200000164320
:10174000000016C3C80000200490FA48C068014693
:1017500003900498FEF7AAFD05900699FEF754FD44
:1017600000210790FFF778F801D2002046E0F24808
:10177000C068F2490590FFF779F801D2EF480AE016
:10178000ED48C068EE490590FFF766F801D2EC48D5
:1017900001E0E948C06807900A98B0F90000B0F588
:1017A000487F02DD4FF4487009E00A98B0F9000064
:1017B000002801DA002002E00A98B0F90000029047
:1017C000FEF772FF0390DF48C0680146029003985D
:1017D000FEF76CFD0490DC48C06801460390049855
:1017E000FEF712FD0590D348C068014604900598A5
:1017F000FEF75CFD06900799FEF706FD0890FEF7E0
:1018000098FFD2490881CC48C068CC490490FFF7C2
:101810002DF801D2C9480AE0C748C068C8490490F9
:10182000FFF71AF801D2C64801E0C348C068069025
:101830000A98B0F90000B0F5487F02DD4FF4487017
:1018400009E00A98B0F90000002801DA002002E05F
:101850000A98B0F900000190FEF726FF0290B948FF
:10186000C068014601900298FEF7CEFC0390B6488E
:10187000C068014602900398FEF718FD0490AD4839
:10188000C068014603900498FEF710FD0590069984
:10189000FEF7BAFCAE490790FEF7E8FF01D2AC486C
:1018A00094E0A548C068A5490490FEF7DFFF01D287
:1018B000A2480AE0A048C068A1490490FEF7CCFF06
:1018C00001D29F4801E09C48C06806900A98B0F990
:1018D0000000B0F5487F02DD4FF4487009E00A9837
:1018E000B0F90000002801DA002002E00A98B0F9FF
:1018F00000000190FEF7D8FE02909248C0680146B1
:1019000001900298FEF780FC03908F48C068014662
:1019100002900398FEF7CAFC04908648C06801460E
:1019200003900498FEF7C2FC05900699FEF76CFC44
:1019300000210790FEF790FF01D2002046E07E488C
:10194000C0687E490590FEF791FF01D27B480AE00E
:101950007948C0687A490590FEF77EFF01D2784841
:1019600001E07548C06807900A98B0F90000B0F52A
:10197000487F02DD4FF4487009E00A98B0F9000092
:10198000002801DA002002E00A98B0F90000029075
:10199000FEF78AFE03906B48C068014602900398E8
:1019A000FEF732FC04906848C06801460390049832
:1019B000FEF77CFC05905F48C068014604900598DE
:1019C000FEF774FC06900799FEF71EFC0890FEF7E0
:1019D000B0FE604908815848C06858490490FEF735
:1019E00045FF01D255480AE05348C0685449049065
:1019F000FEF732FF01D2524801E04F48C06806901E
:101A00000A98B0F90000B0F5487F02DD4FF4487045
:101A100009E00A98B0F90000002801DA002002E08D
:101A20000A98B0F900000190FEF73EFE029045488A
:101A3000C068014601900298FEF738FC03904248C6
:101A4000C068014602900398FEF730FC04903948C4
:101A5000C068014603900498FEF7D6FB05900699EE
:101A6000FEF7D2FB3A490790FEF700FF01D2384853
:101A7000A7E03148C06831490490FEF7F7FE01D273
:101A80002E480AE02C48C0682D490490FEF7E4FE79
:101A900001D22B4801E02848C06806900A98B0F9A6
:101AA0000000B0F5487F02DD4FF4487009E00A9865
:101AB000B0F90000002801DA002002E00A98B0F92D
:101AC00000000190FEF7F0FD02901E48C06801463C
:101AD00001900298FEF7EAFB03901B48C06801469C
:101AE00002900398FEF7E2FB04901248C06801469A
:101AF00003900498FEF788FB05900699FEF784FB97
:101B000000210790FEF7A8FE01D2002059E00A4804
:101B1000C0680A490590FEF7A9FE01D207481DE0FA
:101B20000548C06806490590FEF796FE14D20448A1
:101B300014E000001C0200205C020020000016439C
:101B4000000016C39C010020DC010020BC00002026
:101B500000007A44E00000203148C06807900A98ED
:101B6000B0F90000B0F5487F02DD4FF4487009E09D
:101B70000A98B0F90000002801DA002002E00A9873
:101B8000B0F900000290FEF78FFD03902548C06871
:101B9000014602900398FEF789FB04902248C06832
:101BA000014603900498FEF781FB05901F48C0682A
:101BB000014604900598FEF727FB06900799FEF76B
:101BC00023FB0890FEF7B5FD194908810BE0099841
:101BD000032808D1002017490881174908811749AF
:101BE0000881134908810A98B0F90000322808DA00
:101BF00000201049088110490881104908810C49CA
:101C000008810C4803F06EFA0B4803F06BFA0B489E
:101C100003F068FA064803F065FA0BB000BD000057
:101C20005C0200209C010020DC0100201C0200203E
:101C3000D4000020C8000020BC000020E0000020EC
:101C400070B506460D461446207830B1012814D0F0
:101C5000022825D0032839D130E0012D09D13046A2
:101C600000F066F8012804D1207000F0B7FD184993
:101C7000086018A004F0FEFD28E015B903202070CC
:101C80000AE0012D08D1307A012805D10220207008
:101C9000124800881249088012A004F0EBFD15E0FC
:101CA00015B90320207005E0012D03D1307A0128F9
:101CB00000D120700DA004F0DDFD07E0012D01D161
:101CC000002020700BA004F0D5FD00BF00BF70BD48
:101CD0007800002069646C650A0000007200002032
:101CE000740000206E6F726D616C0A00686F6C6426
:101CF0000A0000006572726F720A000070B5044637
:101D00000D4634B906F020F8084908600120287013
:101D10000BE0012C09D106F017F804490968401AB4
:101D2000B0F57A7F01D90020287070BD6C010020C9
:101D300010B504462948007805284BD2DFE800F0AA
:101D4000031025314500B4F90000B0F5617F06DDD0
:101D500001202249087005F0F7FF2149086039E0A9
:101D6000B4F90000B0F5617F0EDA05F0EDFF1C4913
:101D70000968401AB0F57A7F03D30220174908702A
:101D800002E000201549087024E0B4F9000064283E
:101D900006DA03201149087005F0D6FF11490860E2
:101DA00018E005F0D1FF0F490968401AB0F57A7FB5
:101DB00003D904200949087006E0B4F9000064283A
:101DC00002DD00200549087004E000200349087086
:101DD000012010BD00BF0020FBE7000070010020C3
:101DE00074010020780100202DE9F04104463448B8
:101DF00003F0BFF90746002F5FD131480078432830
:101E00005BD12F484078332857D12D48807812284D
:101E100053D12CA004F02EFD0026002004E0284918
:101E2000095C0E44411CC8B20D28F8DB002524488B
:101E3000407B05062248807B45EA00452048C07B60
:101E400045EA00251E48007C0543AE4234D11C48BB
:101E5000C078000200B2208020881949097908441E
:101E600000B2208016484079000200B2608060888D
:101E700013498979084400B260801148C079000292
:101E800000B2A080A0880E49097A084400B2A08060
:101E90000B48407A000200B2E080E0880849897A65
:101EA000084400B2E0800648C07A20720448007BF3
:101EB00060720020BDE8F08100BF0120FAE7000059
:101EC000084A00206973206D696E650A00000000F1
:101ED00000BFFEE770B505460C461646314628465B
:101EE00000F007F8E86820613146204600F001F86C
:101EF00070BD2DE9F05F04460E46D4E90410FEF7EC
:101F0000D5F905462846A169FEF7D0F98046314645
:101F1000FEF704FA074631462846FEF7CDF980461B
:101F2000E169FEF771F9E061A5613946A068FEF745
:101F3000C3F98146E1696068FEF7BEF98246294629
:101F40002068FEF7B9F983465146FEF75DF98046F1
:101F50004946FEF759F9E060BDE8F09F08B505F085
:101F6000F3FE00901DE00F48FFF73EFF04460D48CA
:101F7000417A0DA004F07EFC0D490A48FEF722FECE
:101F80000C492046FFF7BAFE0B4A0A48017805487B
:101F9000FFF756FE00BF0621684605F0E5FD00BFCD
:101FA00000BFE0E7D84900206F66663A25640A0062
:101FB0007C00002071000020700000202DE9F0411D
:101FC00004460D4621692068FEF71EF960606169CC
:101FD0006068FEF719F9064631466068FEF79EF91B
:101FE000E0602846A168FEF761F90746E168FEF760
:101FF00063F90646A168FEF707F9A0604FF07E502E
:10200000E168FEF753F906466168FEF755F920606E
:10201000A068BDE8F08100002DE9FC5F83460C4616
:102020002046FEF74FFB07464FF033320C4BFEF7CE
:102030005AFA81468A465846FEF744FB07464FF057
:102040003332084BFEF74FFA4A465346CDE90001BA
:10205000FEF7A2F90546FEF780FB00B2BDE8FC9F43
:102060003333EB3F3333C33F07B5A0B04FF07C5160
:102070002298FEF721F90E90FE4880680690FD48F0
:10208000006805900699FEF717F90890F948C068AE
:102090000690F848406805900699FEF70DF90790FC
:1020A0000899FEF703F94FF080410990FEF704F913
:1020B0001D90F048C0680690EE488068059006992B
:1020C000FEF7FAF80890EB4840680690E948006887
:1020D00005900699FEF7F0F807900899FEF794F836
:1020E0004FF080410990FEF7E7F81E90E1488068C4
:1020F0000590E048806804900599FEF7DDF80790A8
:10210000DC4840680590DB48406804900599FEF77C
:10211000D3F806900799FEF777F84FF080410890C2
:10212000FEF7CAF84FF07E510990FEF7C2F81F90F3
:102130002098B0F904000490FEF7B6FA06902098B3
:10214000B0F904000490FEF7AFFA05900699FEF787
:10215000B3F808902098B0F902000290FEF7A4FAB4
:1021600004902098B0F902000290FEF79DFA0390C7
:102170000499FEF7A1F806902098B0F900000290AB
:10218000FEF792FA04902098B0F900000290FEF752
:102190008BFA03900499FEF78FF805900699FEF7E5
:1021A00033F807900899FEF72FF8099003F016FC12
:1021B0000F902098B0F900000890FEF775FA09908A
:1021C0000F99FEF779F81A902098B0F9020008905C
:1021D000FEF76AFA09900F99FEF76EF81B902098A7
:1021E000B0F904000890FEF75FFA09900F99FEF726
:1021F00063F81C901E9807901C9806900799FEF7AC
:102200005BF809901F9807901B9806900799FEF7B6
:1022100053F808900999FEF749F814901F98079011
:102220001A9806900799FEF747F809901D980790AD
:102230001C9806900799FEF73FF808900999FEF759
:1022400035F815901D9807901B9806900799FEF792
:1022500033F809901E9807901A9806900799FEF790
:102260002BF808900999FEF721F816901498089019
:10227000814801680898FEF71FF809907F480068B8
:10228000014608900998FDF7BFFF7C490860159842
:102290000890794801680898FEF70EF80990774889
:1022A0004068014608900998FDF7AEFF7349486001
:1022B00016980890704801680898FDF7FDFF09908E
:1022C0006E488068014608900998FDF79DFF6B49AC
:1022D000886014980146069069480068FDF7ECFF95
:1022E00008902098B0F906000590FEF7DDF90690F9
:1022F000644801680698FDF7DFFF07900899FDF72D
:1023000083FF09905D480068014608900998FDF731
:102310007BFF179015980146069059480068FDF715
:10232000CBFF08902098B0F908000590FEF7BCF9A3
:102330000690544801680698FDF7BEFF079008997B
:10234000FDF762FF09904D484068014608900998E2
:10235000FDF75AFF18901698014606904848006805
:10236000FDF7AAFF08902098B0F90A000590FEF743
:102370009BF90690434801680698FDF79DFF07907A
:102380000899FDF741FF09903C4880680146089094
:102390000998FDF739FF1990199806903548C068DB
:1023A00005900699FDF788FF089018980490314829
:1023B000806803900499FDF77FFF06902D484068E0
:1023C00080F0004004901798014603900498FDF7B0
:1023D00073FF05900699FDF769FF07900899FDF7CF
:1023E00065FF09900E99FDF767FF13901998069005
:1023F0002048806805900699FDF75EFF08901898C0
:1024000004901C48C06803900499FDF755FF06909E
:10241000179804901748006803900499FDF74CFF43
:1024200005900699FDF742FF07900899FDF7ECFE2D
:1024300009900E99FDF740FF1290199806900D48EB
:10244000406805900699FDF737FF089018980490AA
:102450000848006803900499FDF72EFF069017982E
:1024600004900448C06803900499FDF725FF059087
:10247000069909E05C01002058010020FC49002079
:10248000540100204C010020FDF7BEFE0790089982
:10249000FDF70CFF09900E99FDF70EFF11901998AA
:1024A0000690C948006805900699FDF705FF089059
:1024B00018980490C448406803900499FDF7FCFE06
:1024C0000690C148806880F000400490179801464B
:1024D00003900498FDF7F0FE05900699FDF794FE31
:1024E00007900899FDF790FE09900E99FDF7E4FE1C
:1024F0001090B548006809901399FDF785FEB24920
:1025000008600846406809901299FDF77DFEAE49C3
:1025100048600846806809901199FDF775FEAA4940
:1025200088600846C06809901099FDF76DFEA649BD
:10253000C8600846C06806900846C06805900699BD
:10254000FDF7BAFE0890A048806804909E48806815
:1025500003900499FDF7B0FE06909B4840680290F6
:102560009948406801900299FDF7A6FE04909648AC
:10257000006802909448006801900299FDF79CFE63
:1025800003900499FDF740FE05900699FDF73CFE87
:1025900007900899FDF738FE099003F01FFA0F9095
:1025A0008948006809900F99FDF786FE8649086002
:1025B0000846406809900F99FDF77EFE8249486001
:1025C0000846806809900F99FDF776FE7E4988607D
:1025D0000846C06809900F99FDF76EFE7A49C860F9
:1025E00008464068014606904FF08040FDF764FEC3
:1025F00007907548C068014606900798FDF75CFE95
:10260000099071480068014606904FF08040FDF740
:1026100053FE07906C488068014606900798FDF7C6
:102620004BFE08900999FDF741FE0D906648006841
:10263000014606904FF08040FDF73EFE079062484D
:102640004068014606900798FDF736FE09905E48FF
:102650008068014606904FF08040FDF72DFE079000
:102660005948C068014606900798FDF725FE089076
:102670000999FDF7C9FD0C90534880680146069002
:102680004FF08040FDF718FE07904F4880680146E4
:1026900006900798FDF710FE09904B4840680146E8
:1026A00005904FF08040FDF707FE069046484068D1
:1026B000014605900698FDF7FFFD4FF07E5107900B
:1026C000FDF7F7FD08900999FDF7F0FD0B902098B4
:1026D000B0F90A000890FDF7E7FF09903B48016850
:1026E0000998FDF7E9FD0A904FF07C510A98FEF732
:1026F000BDF809D30A98FEF768F80022344BCDE9FB
:102700000801FEF775F80DD222990A98FDF7D4FD5D
:10271000099021980068014608900998FDF774FD1A
:10272000219908602B480068FEF74FF8CDE90601B3
:102730000D98FEF74AF8CDE9020104F0D1FACDE98F
:102740000401DDE90623FDF7CEFECDE90801FEF721
:1027500067F821994860DDE90B1004F0F9FB099056
:102760001C4801680998FDF7A7FD21998860209809
:10277000B0F904000690FDF797FF07900B99FDF75D
:102780009BFD09902098B0F902000490FDF78CFFA2
:1027900005900C99FDF790FD07902098B0F9000086
:1027A0000490FDF781FF05900D99FDF785FD0690DA
:1027B0000799FDF729FD08900999FDF725FD0649C0
:1027C000086023B000BD00005C010020480100202B
:1027D0000000E0BF440100205001002001480068D3
:1027E0007047000050010020704772B600BFFEE73E
:1027F0001CB502F093FC002002F0AEFC02F0A6FB38
:1028000002F040FD1548052100238022CDE900108B
:1028100013A1164805F074F9154801210023802200
:10282000CDE9001013A1164805F06AF915480421F6
:1028300000238022CDE9001013A1164805F060F9AD
:102840001548032100238022CDE9001013A116486A
:1028500005F056F905F0B2F81CBD00007C00002020
:10286000506F7765725F5461736B0000C159000847
:10287000800000204C45445F5461736B00000000F1
:10288000ED530008840000204D6F746F725F546137
:10289000736B00003959000888000020436F6D6D8C
:1028A0005F5461736B0000005D1F000870B5044643
:1028B00000F0B0F906462546681C10B104480078BF
:1028C000054400BF00F0A6F9801BA842FAD370BDF2
:1028D000080000202DE9F8470346002294466EE1E7
:1028E0004FF0010808FA02F4D1F8008008EA040069
:1028F000A0427DD1DFF8DCA2D1F80480A8EB0A0960
:10290000D0453AD014DCB8F1030F50D009DCB8F14F
:10291000000F31D0B8F1010F1CD0B8F1020F49D12E
:1029200020E0B8F1110F18D0B8F1120F42D11EE01B
:10293000B9F5881F25D006DCB9F5803F20D0B9F560
:10294000801F37D11AE0B9F5001F18D0B9F5041F60
:1029500030D117E0D1F80CC02DE0D1F80C8008F18F
:10296000040C28E0D1F80C8008F1080C23E0D1F821
:102970000C8008F10C0C1EE000BF00BF00BF00BFC0
:1029800000BF00BFD1F80880B8F1000F02D14FF0AE
:10299000040C0BE0D1F80880B8F1010F03D14FF01F
:1029A000080C1C6102E04FF0080C5C6103E04FF082
:1029B000000C00E000BF00BFFF2801D8984601E0EE
:1029C00003F104084646FF2802D84FEA820803E0D4
:1029D000A2F108084FEA88084746D6F800804FF071
:1029E0000F0909FA07F928EA09080CFA07F900E0C3
:1029F00088E048EA0908C6F80080D1F8048008F0A9
:102A00008058B8F1805F7DD100BFDFF8CC81D8F865
:102A1000188048F00108DFF8C091C9F81880C8464E
:102A2000D8F8188008F00108CDF8008000BF00BF7A
:102A30004FEAB9384FEA920958F829504FEA82789C
:102A40004FEA18794FF00F0808FA09F825EA080547
:102A5000DFF88881434502D14FF0000816E0DFF827
:102A60008081434502D14FF001080FE0DFF8748107
:102A7000434502D14FF0020808E0DFF86C8143457E
:102A800002D14FF0030801E04FF004084FEA8279C9
:102A90004FEA197908FA09F848EA0505DFF84C8188
:102AA0004FEA920948F82950D1F8048008F48018B8
:102AB000B8F5801F0AD1DFF83881D8F8008048EADD
:102AC0000008DFF82C91C9F8008009E0DFF82081C8
:102AD000D8F8008028EA0008DFF81491C9F80080CF
:102AE000D1F8048008F40018B8F5001F10D1DFF801
:102AF000008108F10408D8F8008048EA0008DFF8EF
:102B0000F09000E05AE009F10409C9F800800DE0F6
:102B1000DFF8DC8008F10408D8F8008028EA000813
:102B2000DFF8CC9009F10409C9F80080D1F80480DD
:102B300008F40038B8F5003F0ED1DFF8B480A8F1F2
:102B40000408D8F8008048EA0008DFF8A490A9F14A
:102B50000409C9F800800DE0DFF89480A8F10408AA
:102B6000D8F8008028EA0008DFF88490A9F1040969
:102B7000C9F80080D1F8048008F48038B8F5803FA7
:102B80000ED1DFF86C80A8F10808D8F8008048EA78
:102B90000008DFF85C90A9F10809C9F800800DE091
:102BA000DFF84C80A8F10808D8F8008028EA00086F
:102BB000DFF83C90A9F10809C9F80080521CD1F84F
:102BC000008028FA02F8B8F1000F7FF489AEBDE862
:102BD000F8870000000011100010024000080140BA
:102BE000000C0140001001400014014008000140A9
:102BF0000804014010B5C26821EA020302EA010498
:102C000043EA0443036110BD0AB1016101E00B0412
:102C10000361704701480068704700000000002011
:102C200070B504460CB9012070BD94F83D0028B978
:102C3000002084F83C00204600F046FB242084F865
:102C40003D002068006820F00100216808602068CD
:102C5000006840F40040216808602068006820F4A3
:102C600000402168086000F025FD05465C49606869
:102C7000884206D85B48854201D2012007E0002047
:102C800005E05948854201D2012000E000200128DA
:102C900000D1C9E75548B5FBF0F62068406820F040
:102CA0003F003043216848604D496068884201D840
:102CB000701C07E04FF4967070434FF47A71B0FBCC
:102CC000F1F0401C2168096A21F03F0108432168A6
:102CD000086243496068884214D8681E61684900E8
:102CE000B0FBF1F0401CC0F30B00042801D204201B
:102CF0003DE0681E61684900B0FBF1F0401CC0F384
:102D00000B0034E0A06838B9681E616801EB41012E
:102D1000B0FBF1F0401C0AE0681E616801EBC102E3
:102D200002EB0111B0FBF1F0401C40F48040C0F315
:102D30000B0008B901201AE0A06848B9681E616854
:102D400001EB4101B0FBF1F0401CC0F30B000CE0C3
:102D5000681E616801EBC10202EB0111B0FBF1F0EA
:102D6000401CC0F30B0040F4804040F40040216858
:102D7000C9694CF6FF72914308432168C861D4E9E0
:102D8000070108432168096821F0C0010843216850
:102D90000860D4E9031008432168896848F2FF32CB
:102DA0009143084321688860D4E9050108432168FC
:102DB000C96821F0FF0108432168C86020680068E5
:102DC00040F001002168086000202064202084F881
:102DD0003D000020206384F83E0000BF24E700008F
:102DE000A086010080841E0000093D0040420F00C3
:102DF0002DE9FE4F04460F4690469946DDE90CAB9F
:102E00000E9E00200290FFF705FF054694F83D0056
:102E1000202872D119230122CE492046009501F0C5
:102E20003CFE10B10220BDE8FE8F00BF94F83C00CC
:102E3000012801D10220F6E7012084F83C0000BF00
:102E40002068006800F0010028B92068006840F0A0
:102E50000100216808602068006820F40060216893
:102E60000860222084F83D00402084F83E000020C5
:102E70002064C4F824A0A4F82AB0608D2085B64848
:102E8000E0624B46424639462046CDE9006501F0F6
:102E9000B1FC08B10120C6E7208D88B900BF002031
:102EA000019020684069019020688069019000BF0E
:102EB00000BF2068006840F40070216808604BE0A3
:102EC000208D01281AD12068006820F480602168D4
:102ED000086072B600BF0020019020684069019030
:102EE00020688069019000BF00BF2068006840F43E
:102EF00000702168086062B62EE029E1208D02286A
:102F000019D12068006840F400602168086072B63A
:102F100000BF00200190206840690190206880690E
:102F2000019000BF00BF2068006820F48060216825
:102F3000086062B610E02068006840F48060216894
:102F4000086000BF0020019020684069019020685F
:102F50008069019000BF00BFEBE0208D03287DD881
:102F6000208D012815D12A463146204601F071FEF8
:102F700008B1012057E720680069616A0870606A3B
:102F8000401C6062208D401E2085608D401E608543
:102F9000CFE0208D02282CD1334600226F492046F5
:102FA000009501F07AFD08B101203CE772B6206877
:102FB000006840F400702168086020680069616A58
:102FC0000870606A401C6062208D401E2085608D04
:102FD000401E608562B620680069616A0870606A98
:102FE000401C6062208D401E2085608D401E6085E3
:102FF0009FE03346002259492046009501F04DFDDF
:1030000008B101200FE72068006820F48060216883
:10301000086072B620680069616A0870606A401CC6
:103020006062208D401E2085608D401E60854C486A
:1030300000681921B0FBF1F04FF47A71B0FBF1F0A8
:10304000C0EBC00000EB8000029000BF0298401E61
:1030500002900298A8B90020206300E039E0202007
:1030600084F83D00002084F83E00206C40F02000F1
:10307000206462B600BF002084F83C0000BF01203D
:10308000D1E620684069C0F380000028DED02068C7
:10309000006840F400702168086020680069616A77
:1030A0000870606A401C6062208D401E2085608D23
:1030B000401E608562B620680069616A0870606AB7
:1030C000401C6062208D401E2085608D401E608502
:1030D0002FE02A463146204601F0BBFD08B1012011
:1030E000A1E620680069616A0870606A401C60623D
:1030F000208D401E2085608D401E608520684069BF
:10310000C0F38000A8B1208D032805D12068006895
:1031100020F480602168086020680069616A087096
:10312000606A401C6062208D401E2085608D401EBC
:103130006085208D00287FF410AF202084F83D00AA
:10314000002084F83E0000BF84F83C0000BF6AE61F
:10315000022068E6020010000000FFFF04000100EA
:103160000C0000202DE9FC5F04460F46904699466E
:10317000DDE90CAB0E9EFFF74DFD054694F83D00D2
:1031800020287DD1192301224D492046009501F0C8
:1031900084FC10B10220BDE8FC9F00BF94F83C0005
:1031A000012801D10220F6E7012084F83C0000BF8D
:1031B0002068006800F0010028B92068006840F02D
:1031C0000100216808602068006820F40060216820
:1031D0000860212084F83D00402084F83E00002053
:1031E0002064C4F824A0A4F82AB0608D2085354856
:1031F000E0624B46424639462046CDE9006501F083
:10320000A9FB08B10120C6E731E02A463146204635
:1032100001F064FD50B1206C042805D120680068DD
:1032200040F40070216808600120B4E7606A00780B
:1032300021680861606A401C6062208D401E208504
:10324000608D401E608520684069C0F3800070B1C9
:10325000208D60B1606A007821680861606A401C56
:103260006062208D401E2085608D401E6085208D0F
:103270000028CAD12A463146204601F0DBFB00E097
:103280001CE050B1206C042805D12068006840F48F
:1032900000702168086001207DE72068006840F424
:1032A000007021680860202084F83D00002084F828
:1032B0003E0000BF84F83C0000BF6CE702206AE7D4
:1032C000020010000000FFFF10B586B00446002089
:1032D00002900390049005902B492068884225D1E4
:1032E00000BF2A48806940F00800284988610846E4
:1032F000806900F00800019000BF00BFC02002906C
:10330000122003900320059002A92148FFF7E2FA5A
:1033100000BF1E48C06940F400101C49C86108463F
:10332000C06900F40010019000BF2AE0194920682C
:10333000884226D100BF1548806940F00800134933
:1033400088610846806900F00800019000BF00BF56
:103350004FF440600290122003900320059002A9D0
:103360000B48FFF7B7FA00BF0848C06940F4800077
:103370000649C8610846C06900F48000019000BF9A
:1033800000BF06B010BD0000005400400010024015
:10339000000C0140005800400348006803490978C8
:1033A0000844014908607047000000200800002020
:1033B00010B50848006840F0100006490860032076
:1033C00000F098F80F2000F007F800F02BF800202C
:1033D00010BD00000020024070B504460E48007881
:1033E0004FF47A71B1FBF0F00C490968B1FBF0F5CC
:1033F000284600F0AFFD08B1012070BD102C07D2A7
:1034000000222146501E00F037F80548046001E014
:103410000120F2E70020F0E7080000200C00002067
:103420000400002008B500BF1148806940F0010089
:103430000F4988610846806900F00100009000BFD4
:1034400000BF00BF0846C06940F08050C861084610
:10345000C06900F08050009000BF00BF00BF054968
:10346000486820F0E06040F00070486000BF08BD90
:1034700000100240000001402DE9F05F80460D463B
:103480001646002703F02EFA074639462A463346E9
:1034900001F00700C0F1070ABAF1040F02D94FF09A
:1034A000040A01E0C0F1070AD14600F1040ABAF1AA
:1034B000070F02D24FF0000A01E0A0F1030AD44640
:1034C0004FF0010A0AFA09FAAAF1010A0AEA020A05
:1034D0000AFA0CFA4FF0010B0BFA0CFBABF1010BE3
:1034E0000BEA030B4AEA0B042146404603F002FABA
:1034F000BDE8F09F00BF00F00702064B19684FF6C9
:10350000FF031940044B0B4343EA0221014B1960AE
:1035100000BF70470CED00E00000FA0570B50446EE
:103520000D460CB9012070BD5A48006800F0070034
:10353000A8420ED25748006820F00700284355499A
:1035400008600846006800F00700A84201D001208A
:10355000E9E7207800F0020002281DD1207800F071
:103560000400042805D14C48406840F4E0604A4912
:103570004860207800F00800082805D146484068D7
:1035800040F46050444948604348406820F0F000EF
:10359000A168084340494860207800F0010078B3F2
:1035A0006068012806D13C48006800F4003090B9FA
:1035B0000120B8E76068022806D13748006800F0AB
:1035C000007040B90120AEE73348006800F0020007
:1035D00008B90120A7E73048406820F0030061687F
:1035E00008432D494860FFF715FB064609E0FFF741
:1035F00011FB801B41F28831884202D9032092E7F7
:1036000007E02548406800F00C006168B0EB810FCE
:10361000EDD12048006800F00700A8420ED91D48EF
:10362000006820F0070028431A490860084600682F
:1036300000F00700A84201D0012074E7207800F0D4
:103640000400042807D11448406820F4E060E168D1
:10365000084311494860207800F00800082808D184
:103660000D48406820F46050216940EAC1000A49D1
:10367000486000F03FF808494968C1F30311074A60
:10368000515CC8400649086006480068FFF7A4FE80
:10369000002048E70020024000100240528000084D
:1036A0000C00002004000020014800687047000062
:1036B0000C00002000B5FFF7F7FF04494968C1F38B
:1036C0000221034A515CC84000BD000000100240C6
:1036D0006280000800B5FFF7E7FF04494968C1F3BD
:1036E000C221034A515CC84000BD000000100240E6
:1036F0006280000870B50021002200240023002011
:10370000134D696801F00C05F5B1042D02D0082DA8
:1037100019D101E00F4819E00F4DC1F38346AB5DAD
:1037200001F4803555B10A4D6D68C5F340450B4E27
:10373000725D084D5D43B5FBF2F402E0084D03FBFA
:1037400005F4204602E000BF024800BF00BF70BD84
:103750000010024000127A004080000850800008EB
:1037600000093D00F8B504460CB90120F8BD2078E9
:1037700000F00100002878D0F848406800F00C0004
:1037800004280CD0F548406800F00C00082811D13E
:10379000F248406800F48030B0F5803F0AD1EF482D
:1037A000006800F4003000285FD0606800285CD119
:1037B0000120DBE700BF6068B0F5803F06D1E74835
:1037C000006840F48030E549086028E0606858B936
:1037D000E248006820F48030E0490860084600684C
:1037E00020F4802008601AE06068B0F5A02F0BD1AB
:1037F000DA48006840F48020D8490860084600682C
:1038000040F4803008600AE0D448006820F480303A
:10381000D24908600846006820F48020086000BF94
:10382000606888B1FFF7F6F9054606E0FFF7F2F9A0
:10383000401B642801D9032098E7C848006800F4B9
:1038400000300028F2D010E0FFF7E4F9054606E06A
:10385000FFF7E0F9401B642801D9032086E7BF4841
:10386000006800F400300028F2D1207800F0020057
:10387000022857D1B948406800F00C0050B1B74851
:10388000406800F00C00082818D1B448406800F4E3
:10389000803098B9B148006800F0020020B120697A
:1038A000012801D0012061E7AC48006820F0F80051
:1038B000616940EAC100A949086033E02069E8B1C4
:1038C0000120A7490860FFF7A5F9054606E0FFF7C4
:1038D000A1F9401B022801D9032047E79F4800684F
:1038E00000F002000028F2D09C48006820F0F800A8
:1038F000616940EAC1009949086013E000209849D5
:103900000860FFF787F9054606E0FFF783F9401BDB
:10391000022801D9032029E79048006800F002003E
:103920000028F2D1207800F0080008282DD1A069E5
:10393000B8B101208B490860FFF76CF9054606E035
:10394000FFF768F9401B022801D903200EE78348DE
:10395000406A00F002000028F2D0012002F066F870
:1039600013E000207F490860FFF754F9054606E0A0
:10397000FFF750F9401B022801D90320F6E67748EB
:10398000406A00F002000028F2D1207800F0040024
:10399000042873D100277148C06900F0805070B9C5
:1039A00000BF6E48C06940F080506C49C86108464D
:1039B000C06900F08050009000BF00BF01276A4836
:1039C000006800F48070B0B96748006840F4807007
:1039D00065490860FFF71EF9054606E0FFF71AF98A
:1039E000401B642801D90320C0E65F48006800F44A
:1039F00080700028F2D000BFE068012806D1574847
:103A0000006A40F001005549086227E0E06858B9B3
:103A10005248006A20F00100504908620846006AD6
:103A200020F00400086219E0E06805280BD14B483B
:103A3000006A40F00400494908620846006A40F004
:103A4000010008620AE04548006A20F0010043498D
:103A500008620846006A20F00400086200BFE068BF
:103A6000A0B1FFF7D7F8054609E0FFF7D3F8401BF0
:103A700041F28831884202D9032077E622E03748B4
:103A8000006A00F002000028EFD012E0FFF7C2F851
:103A9000054608E0FFF7BEF8401B41F28831884236
:103AA00001D9032062E62D48006A00F002000028D8
:103AB000F0D1012F05D12948C06920F08050274955
:103AC000C86100BFE069C8B32448406800F00C003A
:103AD000082860D0E069022848D100202049086603
:103AE000FFF798F8054606E0FFF794F8401B022818
:103AF00001D903203AE61948006800F00070002858
:103B0000F2D1206AB0F5803F07D11448406820F414
:103B10000030A168084311494860D4E9080108430E
:103B20000E49496821F4741108430C49486001208A
:103B30000B490866FFF76EF8054607E03DE0FFF722
:103B400069F8401B022801D903200FE603480068EA
:103B500000F000700028F2D02FE0000000100240BA
:103B6000000042428004424200700040002014499C
:103B70000866FFF74FF8054606E0FFF74BF8401BD5
:103B8000022801D90320F1E50E48006800F000701A
:103B90000028F2D111E0E069012800D1E6E50948EA
:103BA000466806F48031206A814204D106F470111F
:103BB000606A814201D00120D8E50020D6E50000EE
:103BC000000042420010024010B504460CB901202A
:103BD00010BD606A38B96068B0F5827F00D105E039
:103BE0000021E16102E00021216161610021A16207
:103BF00094F8510028B9002084F85000204600F0C5
:103C000043F8022084F851002068006820F040004A
:103C100021680860A08800F48270218901F40441C1
:103C20000843A18901F400610843217C01F00201ED
:103C30000843217D01F001010843218B01F400714B
:103C40000843217F01F0380108432021095D01F07C
:103C500080010843218D01F4005108432168086068
:103C60000421A06901EA1040216848602068C06909
:103C700020F400602168C86100206065012084F89C
:103C800051000020A4E7000010B586B004460020D3
:103C900002900390049005901949206888422DD124
:103CA00000BF1848806940F4805016498861084672
:103CB000806900F48050019000BF00BF00BF08463B
:103CC000806940F0040088610846806900F00400C3
:103CD000019000BF00BFA0200290022003900320AB
:103CE000059002A90848FEF7F5FD4020029000204B
:103CF0000390049002A90448FEF7ECFD06B010BD45
:103D00000030014000100240000801402DE9FE4F44
:103D100004460F4690461D460C9E01200190FEF77A
:103D200079FF814694F851B060680290AA46BBF1D1
:103D3000010F0BD00298B0F5827F04D1A06810B9B2
:103D4000BBF1040F02D00220BDE8FE8F1FB1B8F115
:103D5000000F00D00DB90120F6E700BF94F8500025
:103D6000012801D10220EFE7012084F8500000BFB4
:103D700094F85100042802D0052084F85100002056
:103D80006065C4F83880E587A5872763E586A58642
:103D9000206460642068006800F04000402805D07E
:103DA0002068006840F0400021680860E068B0F5D5
:103DB000006F52D1606810B1BAF1010F09D1206BC8
:103DC00000882168C860206B801C2063E08E401E44
:103DD000E0863BE02068806800F00200022810D1F5
:103DE000E08E70B1019801280BD1206B008821680A
:103DF000C860206B801C2063E08E401EE08600209F
:103E000001902068806800F0010068B1E08F58B12F
:103E10002068C068A16B0880A06B801CA063E08F45
:103E2000401EE08701200190FEF7F4FEA0EB0900A0
:103E3000B0420BD3701C48B1012084F8510000BF80
:103E4000002084F8500000BF03207DE7E08E0028AA
:103E5000C0D1E08F0028BDD152E0606810B1BAF146
:103E6000010F09D1206B007821680873206B401C7A
:103E70002063E08E401EE0863CE02068806800F011
:103E80000200022810D1E08E70B1019801280BD1F8
:103E9000206B007821680873206B401C2063E08E43
:103EA000401EE086002001902068806800F001003C
:103EB00068B1E08F58B12068C068A16B0870A06B32
:103EC000401CA063E08F401EE08701200190FEF7B8
:103ED000A1FEA0EB0900B04201D3701C00B94EB99D
:103EE000012084F8510000BF002084F8500000BF7A
:103EF000032029E7E08E0028BFD1E08F0028BCD145
:103F00004A463146204601F07FFE40B120206065E0
:103F100000BF002084F8500000BF012014E7A06813
:103F200050B900BF002000902068C0680090206851
:103F30008068009000BF00BF012084F8510000BFDE
:103F4000002084F8500000BF606D08B10120FBE63E
:103F50000020F9E670B504462546681EB0F1807F62
:103F600001D301200FE0681E4FF0E02148610F21CE
:103F70004FF0FF3002F0BEFC00204FF0E0218861DE
:103F800007200861002070BD10B50346002200BF65
:103F900093F83C00012801D1022010BD012083F8D4
:103FA0003C0000BF22F0FF00CC6840EA040222F48B
:103FB00040708C6840EA040222F480604C6840EA59
:103FC000040222F400600C6840EA040222F48050EB
:103FD0000C6940EA040222F400504C6940EA0402F1
:103FE00022F48040CC6940EA04021868426400BFB1
:103FF000002083F83C0000BF00BFCEE730B502468A
:104000000B4600BF92F83C00012801D1022030BDD0
:10401000012082F83C0000BF022082F83D001068B9
:1040200044681068816824F07004186804431068BC
:104030004460104D1068A8420BD01068B0F1804F5A
:1040400007D00D4D1068A84203D00C4D1068A8424F
:1040500005D121F08001586801431068816001207A
:1040600082F83D0000BF002082F83C0000BF00BF86
:10407000CDE70000002C0140000400400008004093
:1040800010B504460CB9012010BD94F83D0028B9C4
:10409000002084F83C00204600F026F8022084F836
:1040A0003D00211D206801F08DFE012084F84600AE
:1040B00000BF84F83E0001213F20015540200155FA
:1040C0004120015500BF00BF012084F84200432079
:1040D0000155442001554520015500BF012084F8B9
:1040E0003D000020D0E7000008B5244A0168914255
:1040F0000DD100BF2249896941F40061204A9161D4
:104100001146896901F40061009100BF35E0016842
:10411000B1F1804F0DD100BF1949C96941F00101CA
:10412000174AD1611146C96901F00101009100BF30
:1041300023E0144A016891420DD100BF1049C969BA
:1041400041F002010E4AD1611146C96901F0020134
:10415000009100BF11E00C4A016891420DD100BFEF
:104160000749C96941F00401054AD1611146C9698D
:1041700001F00401009100BF00BF08BD002C014008
:104180000010024000040040000800402DE9F0410A
:1041900004460D46002700BF94F83C00012802D1D8
:1041A0000220BDE8F081012084F83C0000BF02201D
:1041B00084F83D002068866826F0770626F47F465E
:1041C000206886602868502833D00CDC202850D026
:1041D00004DC00284BD0102851D149E0302849D0C8
:1041E00040284CD139E060282DD0702807D0B0F598
:1041F000805F03D0B0F5005F41D10DE041E0D5E92B
:1042000002136A68206801F030FE2068866846F074
:1042100077062068866034E0D5E902136A68206872
:1042200001F023FE2068806840F4804021688860A7
:1042300027E0EA686968206801F0E8FE50212068FC
:1042400001F01EFE1DE0EA686968206801F0F1FED9
:104250006021206801F014FE13E0EA6869682068B4
:1042600001F0D4FE4021206801F00AFE09E000BF01
:1042700000BF00BF2968206801F002FE01E00127AD
:1042800000BF00BF012084F83D0000BF002084F87B
:104290003C0000BF384684E710B586B004460020D5
:1042A00002900390049005903C492068884217D101
:1042B00000BF3B48806940F00400394988610846E6
:1042C000806900F00400019000BF00BF0815029053
:1042D00002200390059002A93248FEF7FBFA5BE04A
:1042E0002068B0F1804F16D100BF2D48806940F0A2
:1042F00004002B4988610846806900F004000190A1
:1043000000BF00BF022002900390059002A925483B
:10431000FEF7E0FA40E024492068884221D100BF3E
:104320001F48806940F008001D498861084680697F
:1043300000F00800019000BF00BF10200290022092
:104340000390059002A91948FEF7C4FA00BF184966
:10435000486820F4406040F0E06040F4006048604D
:104360001AE014492068884216D100BF0C488069C1
:1043700040F008000A4988610846806900F008009A
:10438000019000BF00BF48150290022003900590E5
:1043900002A90648FEF79EFA06B010BD002C0140A7
:1043A000001002400008014000040040000C0140E1
:1043B00000000140000800402DE9F04104460D4690
:1043C0001646002700BF94F83C00012802D10220C5
:1043D000BDE8F081012084F83C0000BF36B1042E16
:1043E0001BD0082E31D00C2E5ED145E02946206826
:1043F00001F050FD2068806940F008002168886164
:104400002068806920F00400216888612068806944
:10441000296908432168886148E02946206801F03D
:1044200069FD2068806940F4006021688861206827
:10443000806920F48060216888612068806929692A
:1044400040EA01202168886130E02946206801F0B7
:1044500085FD2068C06940F008002168C8612068B7
:10446000C06920F004002168C8612068C06929691A
:1044700008432168C86119E02946206801F0A2FDBF
:104480002068C06940F400602168C8612068C06984
:1044900020F480602168C8612068C069296940EA09
:1044A00001202168C86101E0012700BF00BF00BFF3
:1044B000002084F83C0000BF384689E710B5044668
:1044C0000CB9012010BD94F83D0028B9002084F8F3
:1044D0003C00204600F025F8022084F83D00211D14
:1044E000206801F06FFC012084F8460000BF84F8CA
:1044F0003E0001213F20015540200155412001553A
:1045000000BF00BF012084F8420043200155442031
:1045100001554520015500BF012084F83D000020D1
:10452000D0E7704770B504460D4615B994F83E00C3
:104530000BE0042D02D13F20005D06E0082D02D1E2
:104540004020005D01E04120005D012801D00120F4
:1045500070BD1DB9022084F83E000EE0042D03D189
:1045600002213F20015508E0082D03D102214020FF
:10457000015502E00221412001550122294620680F
:1045800001F062FC19492068884201D1012000E055
:10459000002028B12068406C40F400402168486445
:1045A0001249206888420BD02068B0F1804F07D0B4
:1045B0000F492068884203D00E49206888420CD1F8
:1045C0002068806800F00706062E0CD0206800687E
:1045D00040F001002168086005E02068006840F0B4
:1045E0000100216808600020B2E70000002C0140B3
:1045F000000400400008004010B504460CB901203A
:1046000010BDA06900B100E000BF94F8410028B9D6
:10461000002084F84000204600F02AF8242084F886
:1046200041002068C06820F400502168C86020461E
:1046300001F04AFD2068006920F49040216808617B
:104640002068406920F02A00216848612068C0681D
:1046500040F400502168C86000206064202084F885
:10466000410084F842000020606300BFC8E70000FA
:1046700010B586B004460020029003900490059087
:104680001949206888422DD100BF1848C06940F4FC
:1046900000301649C8610846C06900F40030019036
:1046A00000BF00BF00BF0846806940F00400886179
:1046B0000846806900F00400019000BF00BF04209C
:1046C0000290022003900320059002A90848FEF7FB
:1046D00001F90820029000200390049002A90448E8
:1046E000FEF7F8F806B010BD00440040001002408C
:1046F000000801402DE9F84F04460E46174699463A
:104700004FF0000A94F84100202850D106B117B9A3
:104710000120BDE8F88F00206064212084F841006A
:10472000FEF778FA8246A784E784A068B0F5805F38
:1047300004D1206910B90025B04602E035464FF09B
:1047400000081EE05346002280212046CDF800904C
:1047500001F038FD20B1202084F841000320D8E783
:1047600045B9B8F80000C0F308002168486008F1B6
:10477000020803E02878216848606D1CE08C401E28
:10478000E084E08C0028DDD1534600224021204601
:10479000CDF8009001F016FD20B1202084F84100F2
:1047A0000320B6E7202084F841000020B1E7022072
:1047B000AFE700BFFEE7014608684069C0F380200C
:1047C000B0B16FF480600A68506100200863202057
:1047D00081F83D00002081F83E00086C40F00400A4
:1047E000086400BF002081F83C0000BF0120704732
:1047F0000020FCE72DE9F84304460F46154699468C
:10480000DDE908862068006840F48060216808605F
:104810002068006840F480702168086043460022E8
:104820004FF001112046009600F037F960B1206882
:10483000006800F48070B0F5807F02D14FF4007002
:1048400020640320BDE8F88307F0FE0021680861BA
:10485000334642463E49204600F07EF908B1012029
:10486000F0E700BF002000902068406900902068B9
:104870008069009000BF00BF32464146204600F0EC
:104880002DFA50B1206C042805D12068006840F44E
:104890000070216808600120D4E7B9F1010F03D14D
:1048A000E8B22168086117E0C5F3072021680861B4
:1048B00032464146204600F011FA50B1206C0428DF
:1048C00005D12068006840F400702168086001206C
:1048D000B8E7E8B22168086132464146204600F058
:1048E000FDF950B1206C042805D12068006840F41F
:1048F0000070216808600120A4E72068006840F487
:10490000807021680860434600224FF00111204664
:10491000009600F0C2F858B12068006800F480707A
:10492000B0F5807F02D14FF400702064032089E746
:10493000F8B240F00100216808613346424604495C
:10494000204600F009F908B101207BE7002079E753
:10495000020001002DE9F8430446884615469946B1
:10496000DDE908672068006840F48070216808600D
:10497000334600224FF001112046009700F08DF8D9
:1049800060B12068006800F48070B0F5807F02D1CB
:104990004FF4007020640320BDE8F88308F0FE00A7
:1049A000216808613B4632462149204600F0D4F890
:1049B00008B10120F0E700BF0020009020684069A6
:1049C000009020688069009000BF00BF3A463146E1
:1049D000204600F083F950B1206C042805D12068EE
:1049E000006840F40070216808600120D4E7B9F144
:1049F000010F03D1E8B22168086117E0C5F3072071
:104A0000216808613A463146204600F067F950B106
:104A1000206C042805D12068006840F400702168EB
:104A200008600120B8E7E8B2216808610020B3E718
:104A30000200010070B504460D46164625E02046EA
:104A4000FFF7B9FE08B1012070BD681CE8B1FEF7A0
:104A5000E1F8801BA84200D8BDB920684069C0F3C6
:104A6000800090B900202063202084F83D000020C1
:104A700084F83E00206C40F02000206400BF00203D
:104A800084F83C0000BF0120DEE720684069C0F3E5
:104A900080000028D3D00020D6E72DE9F04104465D
:104AA0000D4617461E46DDF8188038E0701CA8B386
:104AB000FEF7B0F8A0EB0800B04200D876BBC5F313
:104AC000074001280AD120684069A9B20840A9B26C
:104AD000884201D101200BE0002009E020688069B4
:104AE000A9B20840A9B2884201D1012000E000200B
:104AF000B84214D100202063202084F83D0000201B
:104B000084F83E00206C40F02000206400BF0020AC
:104B100084F83C0000BF0120BDE8F081FFE7C5F349
:104B2000074001280AD120684069A9B20840A9B20B
:104B3000884201D101200BE0002009E02068806953
:104B4000A9B20840A9B2884201D1012000E00020AA
:104B5000B842ABD00020DFE72DE9F04104460D4616
:104B600016461F4658E020684069C0F38020E8B12F
:104B70002068006840F40070216808606FF480606D
:104B80002168486100202063202084F83D00002037
:104B900084F83E00206C40F00400206400BF002038
:104BA00084F83C0000BF0120BDE8F081701C90B388
:104BB000FEF730F8C01BB04200D866BBC5F3074013
:104BC00001280AD120684069A9B20840A9B28842E8
:104BD00001D101200BE0002009E020688069A9B222
:104BE0000840A9B2884201D1012000E0002090B91C
:104BF00000202063202084F83D00002084F83E003F
:104C0000206C40F02000206400BF002084F83C00AD
:104C100000BF0120C8E7FFE7C5F3074001280AD11C
:104C200020684069A9B20840A9B2884201D1012098
:104C30000BE0002009E020688069A9B20840A9B211
:104C4000884201D1012000E0002000288BD0002004
:104C5000AAE770B504460D46164637E0206840695D
:104C6000C0F30010A0B16FF010002168486100206F
:104C70002063202084F83D00002084F83E00206C52
:104C8000206400BF002084F83C0000BF012070BDFC
:104C9000FDF7C0FF801BA84200D8BDB9206840695D
:104CA000C0F3801090B900202063202084F83D00DC
:104CB000002084F83E00206C40F02000206400BFFB
:104CC000002084F83C0000BF0120E0E72068406934
:104CD000C0F380100028C1D00020D8E770B504468A
:104CE0000D46164625E02046FFF765FD08B1012078
:104CF00070BD681CE8B1FDF78DFF801BA84200D88D
:104D0000BDB920684069C0F3C01090B9002020638D
:104D1000202084F83D00002084F83E00206C40F004
:104D20002000206400BF002084F83C0000BF012068
:104D3000DEE720684069C0F3C0100028D3D000200F
:104D4000D6E7000010B5002204210648FDF75CFFFD
:104D5000642002F019FE012204210248FDF754FFED
:104D600010BD0000000C014010B5002204210E48C7
:104D7000FDF74AFF642002F007FE012204210A48E1
:104D8000FDF742FF4FF4FA7002F0FEFD002204210D
:104D90000548FDF739FF642002F0F6FD01220421E9
:104DA0000148FDF731FF10BD000C014010B586B081
:104DB0000020049005900290039056E002A800F0B5
:104DC0006FF9BDF90800BDF91010401A002805DD83
:104DD000BDF90800BDF91010401A04E0BDF910003B
:104DE000BDF90810401A322827DCBDF90A00BDF9C8
:104DF0001210401A002805DDBDF90A00BDF9121095
:104E0000401A04E0BDF91200BDF90A10401A322818
:104E100013DCBDF90C00BDF91410401A002805DDA3
:104E2000BDF90C00BDF91410401A04E0BDF91400DE
:104E3000BDF90C10401A322803DD002041490870EA
:104E400004E040480078401C3E490870BDF8080066
:104E5000ADF81000BDF80A00ADF81200BDF80C0066
:104E6000ADF814000220FDF721FD36480078C8286F
:104E7000A4DB002000900190002434E002A800F0A0
:104E80000FF9684600F0EAF82F480068BDF90010F5
:104E900008442D49086008464068BDF902100844DE
:104EA0002949486008468068BDF90410084426492D
:104EB00088600846C068BDF9081008442249C860E7
:104EC00008460069BDF90A1008441F4908610846F0
:104ED0004069BDF90C1008441B4948610220FDF7E8
:104EE000E5FC601CC4B2642CC8DB17480068642170
:104EF00090FBF1F01449086008464068642190FB7B
:104F0000F1F01149486008468068642190FBF1F097
:104F10000D4988600846C068642190FBF1F00A4999
:104F2000C86008460069642190FBF1F006490861F9
:104F300008464069642190FBF1F00349486106B0DE
:104F400010BD0000F7000020E449002010B58021CA
:104F50006B2000F06FF8C820FDF7A8FC00216B2043
:104F600000F068F818211B2000F064F800211C20D4
:104F700000F060F80021382000F05CF800216A2081
:104F800000F058F801211A2000F054F801211920EE
:104F900000F050F801216B2000F04CF800216C204B
:104FA00000F048F8FFF702FF10BD000010B50446FE
:104FB000204600F053F8A01D00F072F82088134935
:104FC0000988401A00B22080608810498988401AF8
:104FD00000B26080A1880D480089A0F58040081AC1
:104FE00000B2A080E08809498989401A00B2E080B7
:104FF00020890649098A401A01B221816089034942
:10500000898A401A01B2618110BD0000E449002084
:10501000FEB504460D46164640F6B830012322463A
:10502000D021CDE9005602900148FDF7E1FEFEBD1A
:105030009002002013B584B004464FF47A70012129
:1050400005AA0B46CDE9002102902246D021024854
:10505000FEF788F806B010BD9002002010B5044697
:1050600006220E493B20FFF7D3FF0C4840780B493E
:10507000097840EA012000B220800848C07807493A
:10508000897840EA012000B26080044840790349F1
:10509000097940EA012000B2A08010BDF100002093
:1050A00010B5044606220E494320FFF7B1FF0C4815
:1050B00040780B49097840EA012000B22080084876
:1050C000C0780749897840EA012000B2608004482E
:1050D00040790349097940EA012000B2A08010BD5F
:1050E000F1000020416821B901890268126851630A
:1050F00013E04168042904D10189026812689163B0
:105100000BE04168082904D1018902681268D16363
:1051100003E00189026812681164704710B50A4AF9
:1051200051681068FFF7FEF9084A51681068FFF7E8
:10513000F9F9074A51681068FFF7F4F9054A516810
:105140001068FFF7EFF910BDBC000020C800002078
:10515000D4000020E000002010B5044600F024F840
:1051600014B900F077FC03E0012C01D100F0DEFC63
:1051700010BD70B50446072000F0C0FC0546294666
:10518000272000F029FD05F0400050B111222146F2
:10519000612000F091FCFF21E22000F01DFD0020C5
:1051A00070BD0120FCE700001CB5002000900190BC
:1051B0002EE0052218492A2000F0ECFC0522694661
:1051C0000A2000F079FC9DF8000013490978884214
:1051D0001BD19DF8010010494978884215D19DF8EE
:1051E00002000D49897888420FD19DF803000A49D1
:1051F000C978884209D19DF8040007490979884295
:1052000003D106A001F036FB03E00AA001F032FB57
:10521000CFE700BF1CBD0000EC0000205349323432
:105220005231E887AAE6A380E68890E58A9F0D0AB6
:1052300000000000E887AAE6A380E5A4B1E8B4A5D1
:105240000D0A000038B5044600200090002569468C
:105250000B48008801F00FF805469DF80000012872
:105260000CD121460648008801F02FF805460020A1
:1052700000900348008801F01DF8054638BD000085
:10528000F80000203EB5002002900024019000901C
:1052900000224FF480513148FDF7B6FC0220FDF7A3
:1052A00005FB012211032D48FDF7AEFC0220FDF79E
:1052B000FDFA02AA40F20F112948008801F062FAB3
:1052C00004469DF8081027A001F0D4FA02AA4FF472
:1052D00088712348008801F055FA04469DF80810AB
:1052E00026A001F0C7FA01AA40F20F111C4800885D
:1052F00001F05CFA0446BDF8041027A001F0BAFAE8
:1053000008E069461648008800F0A4FF0446022021
:10531000FDF7CCFA9DF800000028F2D022A001F0A1
:10532000A9FA0F48008801F069F8044602210C48E8
:10533000008801F09FF8044664210948008801F0C4
:1053400031F9044664210648008801F0FFF804465C
:105350000348008801F0FFF904463EBD000C0140FF
:10536000F8000020564C35334C3158204D6F6465A1
:105370006C5F49443A2025580A000000564C3533EA
:105380004C3158204D6F64756C655F547970653A87
:105390002025580A00000000564C35334C31583A4D
:1053A0002025580A000000004368697020626F6F72
:1053B0007465640A0000000070B504460D46A188BB
:1053C0002068FDF717FCA56070BD10B50446A188E4
:1053D00001222068FDF718FC10BD10B50446A18815
:1053E00000222068FDF710FC10BD000008B502F097
:1053F000ABFC009052E02A48007810B101280ED191
:1054000006E02848FFF7E1FF2748FFF7DEFF06E048
:105410002448FFF7E2FF2448FFF7DFFF00BF00BF8B
:105420002248007830B1012814D0022821D0032866
:105430002DD125E01E4880680099081AB0F57A7FC2
:1054400007D91B480099FFF7B7FF1A480099FFF7E3
:10545000B3FF1CE0164880680099081A642807D931
:1054600013480099FFF7A8FF12480099FFF7A4FF1F
:105470000DE00F48FFF7B1FF0E48FFF7AEFF06E063
:105480000B48FFF7A2FF0B48FFF79FFF00BF00BFCD
:1054900000BF3221684602F067FB00BFABE70000A7
:1054A0007100002098000020B00000207000002053
:1054B0008C000020A400002000B585B000200190E1
:1054C00002900390049000BF2A48806940F02000B9
:1054D000284988610846806900F02000009000BFDC
:1054E00000BF00BF0846806940F00400886108469C
:1054F000806900F00400009000BF00BF00BF0846B4
:10550000806940F0080088610846806900F0080062
:10551000009000BF00BF012241F610011648FDF7C0
:1055200073FB01224DF204011448FDF76DFB0022CC
:105530004FF480711048FDF767FB41F610100190A1
:1055400001200290002003900320049001A90A4842
:10555000FDF7C0F94DF204000190012002900020F7
:1055600003900320049001A90448FDF7B3F905B0A6
:1055700000BD00000010024000080140000C014086
:1055800010B50B480B4908600B48486000210948DA
:105590008160C1604FF480410161002141618161FE
:1055A000C1610162FDF73CFB08B1FDF71EF910BDBA
:1055B0000054004090020020801A060010B50B48ED
:1055C0000B4908600B484860002109488160C160B0
:1055D0004FF480410161002141618161C16101623B
:1055E000FDF71EFB08B1FDF700F910BD00580040A3
:1055F000E4020020801A060010B50E480E4908602B
:105600004FF48270486000210B488160C1600161E5
:1056100041614FF4007181611021C161002101627B
:10562000416281620A21C162FEF7CEFA08B1FDF73C
:10563000DCF810BD003001403803002000B595B003
:10564000002011901290139014900F9010901C2134
:1056500008A8FAF7CEFD20216846FAF7CAFD2B48C4
:105660002B4908600320486000212948816040F2EE
:10567000E731C1600021016141618161FEF700FDF8
:1056800008B1FDF7B2F84FF48050119011A92048ED
:10569000FEF77CFD08B1FDF7A8F81D48FEF70EFFE8
:1056A00008B1FDF7A2F800200F9010900FA918483C
:1056B000FEF7A4FC08B1FDF798F8602008900020E0
:1056C00009900A900B900C900D900E90082208A95A
:1056D0000F48FEF771FE08B1FDF787F80020009033
:1056E00001900290039004904FF400500590002028
:1056F000079069460648FEF747FC08B1FDF775F8C4
:105700000348FEF7C9FD15B000BD0000002C0140A4
:105710009003002000B58DB0002009900A900B90F6
:105720000C90079008901C216846FAF762FD4FF034
:1057300080401F4908600320486000211C488160A8
:1057400040F2E731C160002101618161FEF798FC00
:1057500008B1FDF74AF84FF48050099009A91448A0
:10576000FEF714FD08B1FDF740F81148FEF7A6FE5C
:1057700008B1FDF73AF800200790089007A90C48F7
:10578000FEF73CFC08B1FDF730F8602000900020E7
:10579000019002900490042269460548FEF70CFE31
:1057A00008B1FDF722F80248FEF776FD0DB000BD06
:1057B000D803002000B58DB0002009900A900B900E
:1057C0000C90079008901C216846FAF712FD2048BB
:1057D000204908600320486000211E48816040F293
:1057E000E731C160002101618161FEF749FC08B128
:1057F000FCF7FBFF4FF48050099009A91548FEF70C
:10580000C5FC08B1FCF7F1FF1248FEF757FE08B1DE
:10581000FCF7EBFF00200790089007A90D48FEF762
:10582000EDFB08B1FCF7E1FF602000900020019043
:1058300002900490002269460648FEF7BDFD08B1BB
:10584000FCF7D3FF0348FEF727FD0DB000BD0000B5
:10585000000400402004002000B58DB00020099015
:105860000A900B900C90079008901C216846FAF75C
:10587000C0FC2048204908600320486000211E48E1
:10588000816040F2E731C160002101618161FEF772
:10589000F7FB08B1FCF7A9FF4FF48050099009A964
:1058A0001548FEF773FC08B1FCF79FFF1248FEF79E
:1058B00005FE08B1FCF799FF00200790089007A9A2
:1058C0000D48FEF79BFB08B1FCF78FFF60200090AE
:1058D00000200190029004900C2269460648FEF7D1
:1058E0006BFD08B1FCF781FF0348FEF7D5FC0DB056
:1058F00000BD0000000800406804002010B50B48FF
:105900000B4908604FF4E13048600021084881608D
:10591000C16001610C21416100218161C161FEF71B
:105920006BFE08B1FCF761FF10BD000000440040B1
:10593000B004002000BFFEE70EB502F005FA0290A9
:1059400027E01448FBF7D2F9134A14491148FBF732
:105950002FF913491348114ACDE900100D49124897
:10596000FBF71CFA1148FFF76DFC0B4B104802685F
:105970000E4801880F480088FBF734F90A490E48A1
:105980000078FBF7C1FA00BF062102A802F0ECF88C
:1059900000BFD6E7C0490020A69BC43BCC490020ED
:1059A000FA7E6ABC7493783FD849002072000020C8
:1059B00078000020740000207000002000BFFEE787
:1059C0000BE042F210720121002001F007FF10B13C
:1059D000FFF7CAF901E0FFF7B5F9F2E72DE9F05F4B
:1059E00004464FF07F594FF07C512046FAF764FC93
:1059F000824625462E460C48A0EB660635462946CB
:105A00005046FAF759FC83462946FAF755FC80467A
:105A10004946FAF74EFC07462946FAF74DFC05467B
:105A20002846BDE8F09F0000DF59375F08B50849F8
:105A30000968C9084FF47A72B1FBF2F14143009151
:105A400000BF00BF00994A1E00920029F9D108BD8D
:105A50000C00002010B500224FF480711448FDF7AF
:105A6000D3F8052213492A2000F094F801212120BF
:105A700000F0B2F80121222000F0AEF858212520D4
:105A800000F0AAF81121312000F0A6F80F212620FD
:105A900000F0A2F80F21202000F09EF8FF2127201F
:105AA00000F09AF8012211020148FDF7ADF810BD8F
:105AB00000080140EC0000202DE9F04107460D46AA
:105AC0001646002210210C48FDF79EF8384600F0DB
:105AD000BDF88046002405E0002000F0B7F8285506
